S00F0000545241464649432E7372656316
S11300000C942A000C9445040C946E040C949704EC
S11300100C9447000C9447000C9447000C94470040
S11300200C9447000C9447000C9447000C94470030
S11300300C9447000C9447000C9447000C94470020
S11300400C9447000C9447000C9447000C94470010
S11300500C94470011241FBECFE5D8E0DEBFCDBF0E
S113006010E0A0E6B0E0ECE0FFE002C005900D92E5
S1130070A637B107D9F720E0A6E7B0E001C01D928A
S1130080A038B207E1F70E9489020C9484070C940B
S113009000000E94C4040E94CF0465E083E00E9433
S11300A0940365E089E00E94070483E492E00E94DF
S11300B03B040E94C00460916000709161008091D3
S11300C062000E9473020895CF93C0E02DC0609136
S11300D0630070916400809165000E944902609100
S11300E06C0070916D0080916E000E94490264EF73
S11300F071E080E090E00E94D6046091630070910A
S11301006400809165000E945E0260916C007091B1
S11301106D0080916E000E945E0264EF71E080E0E9
S113012090E00E94D604CF5FC53088F260916300EE
S113013070916400809165000E945E0260916C0081
S113014070916D0080916E000E945E026091660065
S113015070916700809168000E945E02609169005E
S113016070916A0080916B000E94490260916F0057
S113017070917000809171000E94490268E873E1F7
S113018080E090E00E94D604609172007091730048
S1130190809174000E945E0260916C0070916D0009
S11301A080916E000E945E0260916F0070917000F9
S11301B0809171000E945E026091690070916A00F2
S11301C080916B000E945E026091630070916400F4
S11301D0809165000E945E026091660070916700E4
S11301E0809168000E945E02109276000E94D10104
S11301F080E0CF910895CF93609172007091730065
S1130200809174000E945E0260916C0070916D0098
S113021080916E000E945E0260916F007091700088
S1130220809171000E945E026091690070916A0081
S113023080916B000E945E02609163007091640083
S1130240809165000E945E02609166007091670073
S1130250809168000E945E0280917900813041F5AE
S11302606091660070916700809168000E94490265
S11302706091720070917300809174000E94490231
S113028068E873E180E090E00E94D6046091660023
S113029070916700809168000E945E026091720014
S11302A070917300809174000E945E02C0E074C07B
S11302B0809178008130A1F180917700813091F1B3
S11302C0C1E06AC060916300709164008091650030
S11302D00E94490260916C0070916D0080916E00E3
S11302E00E94490264EF71E080E090E00E94D6042D
S11302F06091630070916400809165000E945E02C9
S113030060916C0070916D0080916E000E945E029D
S113031064EF71E080E090E00E94D604CF5F03C0F8
S1130320C0E001C0C0E0C53068F260916300709124
S11303306400809165000E945E0260916C0070917F
S11303406D0080916E000E945E0260916600709163
S11303506700809168000E94490260917200709168
S11303607300809174000E94490268E873E180E0A0
S113037090E00E94D60460916600709167008091BD
S113038068000E945E026091720070917300809117
S113039074000E945E02C0E00E9464008C2FCF9122
S11303A00895CF9380917600882321F0813009F459
S11303B05EC061C06091720070917300809174009E
S11303C00E944902C1E0C093790068E873E180E0CB
S11303D090E00E94D6046091720070917300809145
S11303E074000E945E021092790060916F00709117
S11303F07000809171000E944902C093780068E8FF
S113040073E180E090E00E94D60460916F007091E7
S11304107000809171000E945E0210927800C0E02A
S113042020C060916C0070916D0080916E000E94FC
S1130430490281E08093770064EF71E080E090E00E
S11304400E94D60460916C0070916D0080916E00E2
S11304500E945E0264EF71E080E090E00E94D604A6
S1130460CF5FC530F0F210927700C0E005C00E9463
S1130470FB00C0E001C0C1E0109276000E94D101EF
S11304808C2FCF91089581E0809376000E94D10152
S11304900895962F882349F0813071F441E0672F45
S11304A0892F0E94110380E0089540E0672F892F6F
S11304B00E94110380E0089581E00895962F882317
S11304C049F0813071F440E0672F892F0E941103B5
S11304D080E0089541E0672F892F0E94110380E096
S11304E0089581E008951F93CF93DF93C62FD72FEC
S11304F0182F40E0672F8C2F0E948E02111105C027
S113050041E06D2F8C2F0E941103DF91CF911F9139
S113051008950E9449000E94D101FDCF683008F07F
S113052078C041113CC0813099F028F08230E9F064
S1130530833041F170C02AB381E090E002C0880F9B
S1130540991F6A95E2F7809582238ABB80E008951B
S113055027B381E090E002C0880F991F6A95E2F703
S11305608095822387BB80E0089524B381E090E0E6
S113057002C0880F991F6A95E2F78095822384BB95
S113058080E0089521B381E090E002C0880F991FB4
S11305906A95E2F78095822381BB80E0089541301B
S11305A0E1F5813091F028F08230D9F0833029F1DF
S11305B036C02AB381E090E002C0880F991F6A9583
S11305C0E2F7822B8ABB80E0089527B381E090E0B4
S11305D002C0880F991F6A95E2F7822B87BB80E0DF
S11305E0089524B381E090E002C0880F991F6A95B2
S11305F0E2F7822B84BB80E0089521B381E090E090
S113060002C0880F991F6A95E2F7822B81BB80E0B4
S1130610089581E0089581E0089581E0089581E0DE
S11306200895683008F078C041113CC0813099F0D9
S113063028F08230E9F0833041F170C02BB381E0BF
S113064090E002C0880F991F6A95E2F78095822393
S11306508BBB80E0089528B381E090E002C0880F4E
S1130660991F6A95E2F78095822388BB80E00895FC
S113067025B381E090E002C0880F991F6A95E2F7E4
S11306808095822385BB80E0089522B381E090E0C9
S113069002C0880F991F6A95E2F78095822382BB76
S11306A080E008954130E1F5813091F028F0823006
S11306B0D9F0833029F136C02BB381E090E002C039
S11306C0880F991F6A95E2F7822B8BBB80E008950F
S11306D028B381E090E002C0880F991F6A95E2F781
S11306E0822B88BB80E0089525B381E090E002C0AE
S11306F0880F991F6A95E2F7822B85BB80E00895E5
S113070022B381E090E002C0880F991F6A95E2F756
S1130710822B82BB80E0089581E0089581E00895F2
S113072081E0089581E00895653059F5823089F0BB
S113073018F4813031F063C0833099F08430C9F00B
S11307405EC085B78D7F85BF85B78E7F85BF81E00D
S1130750089585B78D7F85BF85B7816085BF81E0AA
S1130760089585B7826085BF85B78E7F85BF81E098
S1130770089585B7826085BF85B7816085BF81E0B4
S11307800895663059F5823089F018F4813031F0DB
S113079038C0833099F08430C9F033C085B7877F7F
S11307A085BF85B78B7F85BF81E0089585B7877F37
S11307B085BF85B7846085BF81E0089585B788606B
S11307C085BF85B78B7F85BF81E0089585B7886035
S11307D085BF85B7846085BF81E00895673099F44B
S11307E0833019F0843031F010C084B78F7B84BF1C
S11307F081E0089584B7806484BF81E0089582E035
S1130800089582E0089582E0089582E00895893091
S1130810A9F4663049F0673061F0653031F58BB783
S113082080648BBF81E008958BB780688BBF81E0C3
S113083008958BB780628BBF81E008958A30B9F444
S1130840663049F0673061F0653099F48BB78F7B7F
S11308508BBF81E008958BB78F778BBF81E00895BC
S11308608BB78F7D8BBF81E0089582E0089581E08E
S1130870089582E00895009731F090937F0080936B
S11308807E0081E0089583E008951F920F920FB6D1
S11308900F9211242F933F934F935F936F937F9302
S11308A08F939F93AF93BF93EF93FF93E0917E0059
S11308B0F0917F00309709F00995FF91EF91BF9176
S11308C0AF919F918F917F916F915F914F913F91E4
S11308D02F910F900FBE0F901F9018951F920F929B
S11308E00FB60F9211242F933F934F935F936F93FF
S11308F07F938F939F93AF93BF93EF93FF93E09175
S11309007C00F0917D00309709F00995FF91EF91FB
S1130910BF91AF919F918F917F916F915F914F9113
S11309203F912F910F900FBE0F901F9018951F921B
S11309300F920FB60F9211242F933F934F935F930F
S11309406F937F938F939F93AF93BF93EF93FF9393
S1130950E0917A00F0917B00309709F00995FF91BE
S1130960EF91BF91AF919F918F917F916F915F9123
S11309704F913F912F910F900FBE0F901F9018959C
S11309808FB780688FBF089587E08ABB17BA84BB8E
S113099011BA1BBA18BA15BA84E082BB089583B79A
S11309A08F7B83BF83B7877F83BF08958F929F9286
S11309B0AF92BF92CF92DF92EF92FF9223B72E7F36
S11309C023BF23B72D7F23BF23B7246023BF0E94F7
S11309D091066B017C0127E137EB41ED50E40E9465
S11309E0EB058823C4F4A701960167E177EB81ED59
S11309F090E40E94670527E137EB41ED5CE30E9438
S1130A00F0050E94620662BF08B600FEFDCF88B7FB
S1130A10816088BF52C027E137EB41ED50E4C70144
S1130A20B6010E94EB05811108C012BE08B600FE93
S1130A30FDCF88B7816088BF40C027E137EB41ED27
S1130A4050E4C701B6010E94F0050E94D4050E943B
S1130A5062064B015C0127E137EB41ED5CE3C70122
S1130A60B6010E94F0056B017C01C501B4010E942E
S1130A7091069B01AC01C701B6010E94F0059B01E0
S1130A80AC0160E070E080E893E40E9467050E9496
S1130A90620662BF40E050E0BA010AC008B600FE38
S1130AA0FDCF88B7816088BF4F5F5F4F6F4F7F4F27
S1130AB0481559056A057B0588F313BEFF90EF902E
S1130AC0DF90CF90BF90AF909F908F900895505833
S1130AD0BB27AA270E947F050C9432070E94240793
S1130AE038F00E942B0720F039F49F3F19F426F4C4
S1130AF00C9421070EF4E095E7FB0C94F206E92F21
S1130B000E94430758F3BA176207730784079507CF
S1130B1020F079F4A6F50C947D070EF4E0950B2EE5
S1130B20BA2FA02D0B01B90190010C01CA01A0013B
S1130B301124FF27591B99F0593F50F4503E68F196
S1130B401A16F040A22F232F342F4427585FF3CFD7
S1130B50469537952795A795F0405395C9F77EF4A8
S1130B601F16BA0B620B730B840BBAF09150A1F0F1
S1130B70FF0FBB1F661F771F881FC2F70EC0BA0F77
S1130B80621F731F841F48F4879577956795B795FF
S1130B90F7959E3F08F0B0CF9395880F08F09927FA
S1130BA0EE0F9795879508950E94650790F09F37FB
S1130BB048F4911116F40C947E0760E070E080E82C
S1130BC09FE3089526F01B16611D711D811D0C9471
S1130BD0F8060C9413070E94CE0608F481E00895E9
S1130BE00E9404060C9432070E942B0758F00E94BE
S1130BF0240740F029F45F3F29F00C94F2065111C8
S1130C000C947E070C9421070E94430768F39923F0
S1130C10B1F3552391F3951B550BBB27AA276217F4
S1130C207307840738F09F5F5F4F220F331F441F01
S1130C30AA1FA9F335D00E2E3AF0E0E832D0915035
S1130C405040E695001CCAF72BD0FE2F29D0660F22
S1130C50771F881FBB1F261737074807AB07B0E865
S1130C6009F0BB0B802DBF01FF2793585F4F3AF06B
S1130C709E3F510578F00C94F2060C947E075F3F7A
S1130C80E4F3983ED4F3869577956795B795F795F1
S1130C909F5FC9F7880F911D9695879597F90895D9
S1130CA0E1E0660F771F881FBB1F62177307840775
S1130CB0BA0720F0621B730B840BBA0BEE1F88F784
S1130CC0E09508950E944B0788F09F5798F0B92F3C
S1130CD09927B751B0F0E1F0660F771F881F991F6D
S1130CE01AF0BA95C9F714C0B13091F00E947D078B
S1130CF0B1E008950C947D07672F782F8827B85F9B
S1130D0039F0B93FCCF3869577956795B395D9F7C4
S1130D103EF490958095709561957F4F8F4F9F4FCE
S1130D200895E89409C097FB3EF4909580957095DA
S1130D3061957F4F8F4F9F4F9923A9F0F92F96E923
S1130D40BB279395F695879577956795B795F11198
S1130D50F8CFFAF4BB0F11F460FF1BC06F5F7F4F35
S1130D608F4F9F4F16C0882311F096E911C0772347
S1130D7021F09EE8872F762F05C0662371F096E850
S1130D80862F70E060E02AF09A95660F771F881F1F
S1130D90DAF7880F9695879597F90895990F0008C3
S1130DA0550FAA0BE0E8FEEF16161706E807F90739
S1130DB0C0F012161306E407F50798F0621B730BD4
S1130DC0840B950B39F40A2661F0232B242B252B55
S1130DD021F408950A2609F4A140A6958FEF811DF8
S1130DE0811D089597F99F6780E870E060E0089599
S1130DF0882371F4772321F09850872B762F07C02E
S1130E00662311F499270DC09051862B70E060E0A1
S1130E102AF09A95660F771F881FDAF7880F969540
S1130E20879597F908959F3F31F0915020F4879565
S1130E3077956795B795880F911D9695879597F93E
S1130E4008959FEF80EC089500240A94161617065F
S1130E5018060906089500240A94121613061406A7
S1130E6005060895092E0394000C11F4882352F00A
S1130E70BB0F40F4BF2B11F460FF04C06F5F7F4FC2
S1130E808F4F9F4F089557FD9058440F551F59F0A9
S1130E905F3F71F04795880F97FB991F61F09F3F63
S1130EA079F087950895121613061406551FF2CF8C
S1130EB04695F1DF08C0161617061806991FF1CFDC
S1130EC0869571056105089408950E944B07A0F06A
S1130ED0BEE7B91788F4BB279F3860F41616B11D16
S1130EE0672F782F8827985FF7CF86957795679532
S1130EF0B11D93959639C8F30895E894BB276627E6
S10F0F007727CB0197F90895F894FFCFF0
S1130F0C03020002020102010102000100020100BD
S1090F1C010100000100C8
S9030000FC
